:020000040000FA
:040000008231482AD7
:040004000034003490
:080008002000A0000308A10084
:100010000A08A2002700161813280F28172886316F
:100020003326803117288631672680311728200033
:1000300022088A0021088300A00E200E0900F0008B
:10004000200095011F3020001502031C2228F00B10
:1000500020280034A80100002000A80A103028063B
:06006000031D2B280034F3
:0A0066002000780823009A00000033
:1000700000002000111E3A2800342000911E3D2867
:1000800023001D12230019082000F90020009112FE
:1000900023001D1600348B115F3020002406031945
:1000A000C32820008D1959280D1A77288D1A9528F4
:1000B0004C29613020002402B7000430B60087319B
:1000C000C127803120003708A4006130A4075D30CB
:1000D0002000B7002508B7020430B6008731C127D9
:1000E00080315D302000A5003708A5024C29613021
:1000F00020002402B7000230B6008731C1278031CA
:1001000020003708A4006130A4075D302000B7004C
:100110002508B7020230B6008731C12780315D3033
:100120002000A5003708A5024C29613020002402D8
:10013000B7000430B6008731C1278031200037086E
:10014000A400B1000330B4008731A6278031310804
:10015000A4006130A4075D302000B7002508B70275
:100160000430B6008731C127803120003708B10044
:100170000330B4008731A62780315D302000A50010
:100180003108A5024C295F302000260603194C29AE
:1001900020008D19D0280D1AF4288D1A18294C2901
:1001A0005F30200026020318E5285D302000B700EC
:1001B0002608B7020430B6008731C12780315D3090
:1001C0002000A6003708A6024C2961302000260234
:1001D000B7000430B6008731C127803120003708CE
:1001E000A6006130A6074C295F30200026020318C4
:1001F00009295D302000B7002608B7020230B6009A
:100200008731C12781315D302000A6003708A60262
:100210004C29613020002602B7000230B600873139
:10022000C127813120003708A6006130A6074C297C
:100230005F3020002602031835295D302000B7000A
:100240002608B7020430B6008731C127813120006B
:100250003708B1000330B4008731A62781315D3003
:100260002000A6003108A6024C2961302000260299
:10027000B7000430B6008731C1278131200037082C
:10028000A600B1000330B4008731A62781313108C0
:10029000A6006130A6074C2901302000C5072000C8
:1002A0002B08F80033203D2020002B087906031D81
:1002B000532920002408F80033203D202000240882
:1002C0007906031D5D2920002508F80033203D2014
:1002D000200025087906031D672920002608F8005C
:1002E00033203D20200026087906031D71292000B7
:1002F0003008F80033203D20200030087906031D27
:100300007B2920003F08F80033203D2020003F08D3
:100310007906031D852920004108F80033203D207F
:10032000200041087906031D8F2920004208F800AB
:1003300033203D20200042087906031D9929200022
:100340004308F80033203D20200043087906031DB0
:10035000A329FD30F80033203D2001307906031930
:10036000BE29023079060319B629AC2920004718A6
:10037000BE298731DA2781312000471420008E1AE8
:10038000CD29843181248131AA30F80033203D20E9
:10039000AA307906031DC72901005530F800332023
:1003A0003D2055307906031DD029D6298B15003400
:1003B0008B112000C501C60AFE30F80033203D2015
:1003C000FE307906031DDF293D20FE307906031932
:1003D000E42920002D08790603190034790820004B
:1003E000AD0085312C2581318B1500348B11200017
:1003F000C601FF30F80033203D20FF307906031D91
:10040000FC2980313D208231FF302000790603191C
:10041000012A200079082000B90001302000F800EE
:100420008031332082312000911E132A80313D20FB
:100430008231200079082000BA0002302000F80044
:100440008031332082312000911E232A80313D20CB
:100450008231200079082000BB0003302000F80022
:100460008031332082312000911E332A80313D209B
:100470008231200079082000BC0004302000F80000
:100480008031332082318531E02582318B15003473
:100490008631F22682318431BB2482312000F90179
:1004A00080313D208231F5307906031D502AF73026
:1004B000F80080313320823185315F258231200080
:1004C0008D1D6A2A8531002582312700941127006D
:1004D0009515832A20000D1E752A85310B25823142
:1004E0002700141227001516832A20008D1E802A4B
:1004F0008531162582312700941227009516832A0C
:100500008531212582318B1527001414210091019A
:1005100020008E14113021009D002A202000AF0100
:10052000B00121009D149D18932A21001C08200071
:10053000F50038302000B00082302000300203186F
:10054000A82AB00A0230AF072F08750203189C2AA8
:10055000093021009D002A2021009D149D18AE2AFB
:1005600021001C082000F50021302000BF002000E1
:10057000AF013C3020003F060319C62ABF0A0930EC
:10058000AF072F08200075020318B92A0130210097
:100590009D002A202A2021009D149D18CD2A21008B
:1005A0001C08F300053021009D002A202A2021008C
:1005B0009D149D18D92A21001C08F4008731892731
:1005C0008231200027184A2B87315E2782318731FC
:1005D0006927823177087602031C1D2BEF2AF31F4F
:1005E000072B00302000AB007308F200873174271E
:1005F000823120002308A4008030F2007608F20245
:1006000087317427833120002308A5004A2B01304D
:100610002000AB007308F20087317427833120007B
:100620002308A5007F30F2007608F207873174278F
:10063000833120002308A4004A2BF41F352B0230FD
:100640002000AB007408F20087317427833120004A
:100650002308A4008030F2007708F2028731742763
:10066000833120002308A5004A2B03302000AB0073
:100670007408F20087317427833120002308A50015
:100680007F30F2007708F20787317427833120002A
:100690002308A4000D3021009D002A2021009D1474
:1006A0009D18502B21001C082000F3007E302000F4
:1006B0007302031C642B8530200073020318642B23
:1006C0005E302000C1008D2B813020007302031C9E
:1006D0007B2B5F302000C1008330C00076302000CB
:1006E000410203188D2B40087302031C8D2BC10A95
:1006F0000130C0076E2B44302000C1006330C000C1
:100700005D302000410203188D2B40087302031C4A
:100710008D2BC10A0130C007802B153021009D00B0
:100720002A2021009D149D18932B21001C082000D5
:10073000F3007F307302031CA12B84307302031C6F
:10074000E82B813073020318C72B39302000420692
:100750000319E82B7830200073020318C42B6E3085
:10076000200073020318BC2B3E3020004202031C01
:10077000C42B0530C202E82B3C3020004202031C8F
:10078000C42B0330C202E82B2000C203E82B7A30CE
:10079000200042060319E82B8C3020007302031C52
:1007A000E62B9630200073020318DE2B76302000F3
:1007B00042020318E62B0530C207E82B78302000F0
:1007C00042020318E62B0330C207E82B2000C20ABE
:1007D000193021009D002A2021009D149D18EE2B28
:1007E00021001C082000F3007D307302031CFC2B49
:1007F0007F307302031C292C813073020318152CDF
:100800001A30200043060319292C7030200073028F
:100810000318122C1F3020004302031C122C053039
:10082000C302292C2000C303292CA1302000430639
:100830000319E82B923020007302031C272C9D30F3
:10084000200043020318272C0530C307292C200061
:10085000C30A20000E1C2F2C7D302500910680310C
:100860004B208431283020004506031D3A2C81316D
:10087000D8218431053020004606031D8A2A8131A3
:06088000F62184318A2AF2
:0A08860020000D11003420000D15B4
:10089000003420008D140000000000008D10003492
:1008A00020008F0043244924023080311F208431EE
:1008B000003420008F0046244924023080311F205C
:1008C000843100342000AC01D4305024732400382B
:1008D0000319722C5924013080311F2084312000EB
:1008E000AC0A662C0034793020002C0703188A0AE1
:1008F000820028344C34453441344B34213429347B
:1009000000342000AC010130502480305024942465
:1009100000380319932C5924013080311F20843171
:100920002000AC0A872C00349A3020002C070318D2
:100930008A0A820050346534723466346F347234FB
:100940006D3469346E346734203452346534733412
:10095000653474342E342E342E34003432301F205B
:1009600038305024063050240C30502401305024AC
:1009700080305024003480305024493059244E3087
:10098000592449305924543059244930592441308C
:1009900059244C305924493059245A30592449306B
:1009A00059244E305924473059242E3059242E30A2
:1009B00059242E305924D4305024623059246930BF
:1009C00059247430592464305924723059246930C0
:1009D000592476305924653059246E3059246330B7
:1009E00059246930592472305924633059247530A0
:1009F00059246930592474305924733059240034EF
:100A00009B30502432305924353059242530592414
:100A10002030592400349B30502435305924303054
:100A20005924253059242030592400349B30502437
:100A30003730592435305924253059242030592451
:100A400000349B3050243130592430305924303018
:100A50005924253059240034873050246430200034
:100A60002D02031C352D313059242000AE01AE0A71
:100A70000A30AD020318372DAE030A30AD072E0839
:100A800085315425853159242000AE01AE0A01304C
:100A9000AD020318462DAE03883050242E08853150
:100AA00054258531592400348207303431343234AE
:100AB000333434343534363437343834393401301F
:100AC00050248030502454305924653059246D30DE
:100AD0005924703059243A30592489305024DF3059
:100AE0005924463059248C3050247C305924C0304D
:100AF00050245030592472305924653059247330B1
:100B00005924733059243A305924CC3050247C3045
:100B10005924943050244730592461305924693085
:100B200059246E3059243A30592420305924A030A9
:100B300050247C305924E03050247C3059248D30AE
:100B40005024433059243130592420305924203046
:100B500059242E3059242030592456305924CD3070
:100B60005024433059243230592420305924203025
:100B700059242E3059242030592456305924A1307C
:100B80005024433059243330592420305924203004
:100B900059242E3059242030592456305924E1301C
:100BA00050244330592434305924203059242030E3
:100BB00059242E30592420305924563059240034D9
:100BC000923050240F303905853154258531592410
:100BD0009030502420003908BE00BE0E0F303E0574
:100BE0008531542585315924D23050240F303A05AF
:100BF0008531542585315924D030502420003A08BD
:100C0000BE00BE0E0F303E05853154258631592475
:100C1000A63050240F303B058531542586315924A8
:100C2000A430502420003B08BE00BE0E0F303E050D
:100C30008531542586315924E63050240F303C0547
:100C40008531542586315924E430502420003C0855
:100C5000BE00BE0E0F303E05853154258631592425
:060C600020003D100034ED
:0A0C660020000D080B1027001610E7
:100C700020008D195D2E0D1A542E8D1A482E270036
:100C80009601853121258631393027009400662E62
:100C900027009601853116258631193027009400EA
:100CA000203027009500662E2700960185310B2500
:100CB0008631293027009400662E27009601853161
:100CC00000258631313027009400662E0034200044
:100CD0000D080B102700161007302000AB005F3006
:100CE000A400A500A60080314B20863105302100EC
:100CF0009D0080312A20863180312A2086312100D2
:100D00009D149D18812E21001C08F4000130210043
:100D10009D0080312A20863180312A2086312100B1
:100D20009D149D18912E21001C08F30087318927FE
:100D3000863120002718E02E8731692786318731D8
:100D40005E27863177087602031CA72ED52EF41F66
:100D5000BF2E04302000AB007408F20087317427E6
:100D6000863120002308A4008030F2007708F202C8
:100D700087317427863120002308A500E02E053036
:100D80002000AB007408F200873174278631200000
:100D90002308A5007F30F2007708F2078731742717
:100DA000863120002308A400E02E06302000AB008E
:100DB0007308F20087317427863120002308A600CB
:100DC00080314B20863120000D18762E0730200010
:100DD000AB005F302000A400A500A60080314B20AE
:040DE0008631003424
:0C0DE4002100FF308C00F9308D00F83049
:100DF0008E0000308F00033090001F3023008C00E5
:100E0000033023009000103021009E0023008D014C
:100E10008F0120008F018E018D01C63021009500C9
:100E2000003021009900063020009C008C3020000A
:100E30009B002500FC300C3025009300250091011B
:100E4000A901FF3023009B00230000309F002430C5
:100E500023009E00903023009D000A3080311F2027
:100E6000873107302000AB005F30A400A500A6004A
:100E70002230BF00FA302000A900F901F801A701D3
:100E80002000B901BA01BB01BC01BE01BD015E3049
:100E90002000C100C200C3000A30C400C0308B0073
:100EA000210091013930270094008431AE2487312C
:0C0EB0002000C501C701AD01C6010034DF
:040EBC00F31F642F8D
:100EC0007F307302F60000347F30F6007308F602BC
:100ED0000034F41F6F2F7F307402F70000347F302E
:100EE000F7007408F7020034F1012000AA01A30101
:100EF0004630A300710820002902031C882F05300A
:100F0000F10771087202031C882F2000A30A7A2FB0
:100F100000342000A70189307302031800347530B3
:100F20007302031C003489307402031800347530D6
:100F30007402031C00342000271407302000AB008B
:0C0F40005F302000A400A500A6000034D3
:040F4C000830200049
:100F5000B800B201B3012000311CB32F20003408C7
:100F6000B2070318B30A03102000B10C0310B20C2F
:100F70000318B1170310B30C0318B217B80BAB2F3B
:100F800000342000B5010830B80003102000B50D72
:100F9000B71B3514B70D3608B502031CD32F371411
:100FA000B80BC52FD92F200037103608B507B80B5E
:040FB000C52F003415
:0C0FB40020000E147D30250091008431D7
:060FC000622487310034B9
:020000040001F9
:02000E00C20925
:02001000FF1DD2
:00000001FF
